:100000000C94F7030C941F040C941F040C947313AA
:100010000C9473130C9473130C941F040C941F040E
:100020000C941F040C941F040C941F040C941F04C4
:100030000C941F040C941F040C941F040C941F04B4
:100040000C9429130C941F040C94F7120C94D112E5
:100050000C941F040C941F040C941F040C941F0494
:100060000C94D6130C941F045363616E2066696E62
:1000700067657220746F2073746172742E2E2E0067
:1000800044697361726D2D69742100537065616BF1
:10009000206974210050617373776F7264206974F2
:1000A00021005363616E206974210068616E646C85
:1000B000696E6720696E7075740000000000003E74
:1000C0005B4F5B3E3E6B4F6B3E1C3E7C3E1C183CC8
:1000D0007E3C181C577D571C1C5E7F5E1C00183C24
:1000E0001800FFE7C3E7FF0018241800FFE7DBE76D
:1000F000FF30483A060E2629792926407F05050754
:10010000407F05253F5A3CE73C5A7F3E1C1C0808AF
:100110001C1C3E7F14227F22145F5F005F5F060974
:100120007F017F006689956A606060606094A2FFCD
:10013000A29408047E040810207E201008082A1CBF
:1001400008081C2A08081E101010100C1E0C1E0C8B
:1001500030383E3830060E3E0E060000000000002B
:10016000005F00000007000700147F147F14242A9A
:100170007F2A12231308646236495620500008076C
:100180000300001C2241000041221C002A1C7F1C8D
:100190002A08083E0808008070300008080808088F
:1001A000000060600020100804023E5149453E00F6
:1001B000427F400072494949462141494D33181454
:1001C000127F1027454545393C4A494931412111A3
:1001D00009073649494936464949291E0000140095
:1001E00000004034000000081422411414141414B8
:1001F000004122140802015909063E415D594E7C16
:100200001211127C7F494949363E414141227F41CA
:1002100041413E7F494949417F090909013E414128
:1002200051737F0808087F00417F41002040413F13
:10023000017F081422417F404040407F021C027F22
:100240007F0408107F3E4141413E7F090909063E77
:100250004151215E7F091929462649494932030146
:100260007F01033F4040403F1F2040201F3F403858
:10027000403F631408146303047804036159494D33
:1002800043007F4141410204081020004141417F69
:1002900004020102044040404040000307080020DF
:1002A000545478407F2844443838444444283844DF
:1002B00044287F385454541800087E090218A4A416
:1002C0009C787F0804047800447D40002040403D35
:1002D000007F1028440000417F40007C04780478AF
:1002E0007C080404783844444438FC182424181842
:1002F000242418FC7C08040408485454542404049E
:100300003F44243C4040207C1C2040201C3C40308A
:10031000403C44281028444C9090907C4464544CB9
:100320004400083641000000770000004136080014
:1003300002010204023C2623263C1EA1A161123ABE
:100340004040207A3854545559215555794122540A
:10035000547842215554784020545579400C1E520F
:1003600072123955555559395454545939555454B4
:10037000580000457C410002457D420001457C401B
:100380007D1211127DF0282528F07C54554500205F
:1003900054547C547C0A097F4932494949323A44D1
:1003A00044443A324A4848303A4141217A3A42403C
:1003B0002078009DA0A07D3D4242423D3D4040400E
:1003C0003D3C24FF2424487E4943662B2FFC2F2BE1
:1003D000FF0929F620C0887E090320545479410082
:1003E00000447D413048484A32384040227A007A01
:1003F0000A0A727D0D19317D2629292F28262929DF
:10040000292630484D402038080808080808080800
:10041000382F10C8ACBA2F102834FA00007B000027
:1004200008142A142222142A14085500550055AA2B
:1004300055AA55AAFF55FF55FF000000FF001010F8
:1004400010FF00141414FF001010FF00FF1010F034
:1004500010F0141414FC001414F700FF0000FF0047
:10046000FF1414F404FC141417101F10101F101F95
:100470001414141F00101010F0000000001F1010C2
:1004800010101F10101010F010000000FF101010BE
:10049000101010101010FF10000000FF140000FFDB
:1004A00000FF00001F10170000FC04F414141710C4
:1004B000171414F404F40000FF00F71414141414B7
:1004C0001414F700F7141414171410101F101F142D
:1004D0001414F4141010F010F000001F101F00008E
:1004E000001F14000000FC140000F010F01010FFBA
:1004F00010FF141414FF141010101F00000000F05F
:1005000010FFFFFFFFFFF0F0F0F0F0FFFFFF000033
:10051000000000FFFF0F0F0F0F0F3844443844FC5A
:100520004A4A4A347E02020606027E027E02635571
:100530004941633844443C04407E201E2006027E2C
:10054000020299A5E7A5991C2A492A1C4C7201723E
:100550004C304A4D4D303048784830BC625A463DA8
:100560003E494949007E0101017E2A2A2A2A2A445D
:10057000445F444440514A444040444A5140000092
:10058000FF0103E080FF000008086B6B083612369D
:100590002436060F090F060000181800000010107E
:1005A000003040FF0101001F01011E00191D17123C
:1005B000003C3C3C3C000000000000000008000241
:1005C000010000030407000000000000000000001C
:1005D0000000240027002A00000060000000000046
:1005E000000000000000000000E00000000000002B
:1005F0000000000000000001E0000000000000001A
:1006000000000000000001F00000000000000000F9
:10061000000000000003F0000000000000000000E7
:100620000000000007F000000000000000000000D3
:1006300000000007F80000000000000000000000BB
:1006400000000FF800000003C0007E000001E00081
:100650007F0FF800000003C000FE000001E000FF73
:10066000EFF800000003C000FE000001E000FFFF03
:10067000F800000003C000F00000000F007FFE7FC4
:10068000C0000003C000F00000000F003FFE7FF834
:100690003FF1FBCFFCFEF3BC3DEFE01FFE7FFF7F91
:1006A000FBFFDFFEFEFFBC3DEFE01FC6FFFF7FFB51
:1006B000FFDFFEFEFFBC3DEFE00FE3C7FE787BC32C
:1006C000DE1EF0FFBC3DEF0007FF87FC787BC3DE3A
:1006D0001EF0F83C3DEF0001FFFFF0007BC3C01EA1
:1006E000F0F03C3DEF0001F37FE03FFBC3CFFEF0B5
:1006F000F03C3DEF0003E33F807FFBC3DFFEF0F003
:100700003C3DEF0007E73C00787BC3DE1EF0F03C89
:100710003DEF0007FFBE00787BC3DE1EF0F03C3DDE
:10072000EF0007FFFE00787BC3DE1EF0F03C3DEFDC
:10073000000FFFFE007FFBFFDFFEF0F03FFDEFE06C
:100740000FFFFF007FFBFFDFFEF0F03FFDEFE00F4C
:10075000F9FF003E79F9CF9EF0F01F3DE7E01FF171
:10076000FF0000000000000000000000001F80FFEC
:10077000007FFFFFFFFFFFFFFFFFFFE01C007F0088
:100780007FFFFFFFFEB46D888D18E000001F007F23
:10079000FFFFFFFE95AD7DB577E000000F007FFF06
:1007A000FFFFFEA5AD9D8D19E0000006007FFFFF55
:1007B000FFFEB5ADEDB57EE00102040810204080DB
:1007C00001020408102001020408102000000000AB
:1007D000250028002B00040404040404040402027D
:1007E00002020202030303030303F514381A11245F
:1007F0001FBECFEFD8E0DEBFCDBF11E0A0E0B1E07B
:10080000E6E2F9E302C005900D92A23CB107D9F7E8
:1008100023E0A2ECB1E001C01D92A33AB207E1F7D8
:1008200013E0C6EFD3E004C02197FE010E944F1BE6
:10083000C53FD107C9F70E9416160C94861C0C946C
:100840000000FC0120812EBD0DB407FEFDCF2EB5AA
:10085000FC0120830895089508950895AF92BF92F2
:10086000CF92DF92EF92FF920F931F93CF93DF937C
:100870006C017B018B01040F151FEB015E01AE18AB
:10088000BF08C017D10759F06991D601ED91FC91CD
:100890000190F081E02DC6010995892B79F7C501FA
:1008A000DF91CF911F910F91FF90EF90DF90CF904C
:1008B000BF90AF900895FC01538D448D252F30E0FB
:1008C000842F90E0821B930B541710F0CF9608955D
:1008D00001970895FC01918D828D981761F0A28D8A
:1008E000AE0FBF2FB11D5D968C91928D9F5F9F7350
:1008F000928F90E008958FEF9FEF0895FC01918D06
:10090000828D981731F0828DE80FF11D858D90E072
:1009100008958FEF9FEF0895FC01918D228D892F0F
:1009200090E0805C9F4F821B91098F7399270895F7
:100930008EE892E00E948C0421E0892B09F420E0EB
:10094000822F089580E090E0892B29F00E9498047E
:1009500081110C9400000895FC01A48DA80FB92FFB
:10096000B11DA35ABF4F2C91848D90E001968F73D7
:100970009927848FA689B7892C93A089B1898C91F6
:10098000837080648C93938D848D981306C0028845
:10099000F389E02D80818F7D80830895EF92FF920F
:1009A0000F931F93CF93DF93EC0181E0888F9B8D92
:1009B0008C8D98131AC0E889F989808185FF15C04C
:1009C0009FB7F894EE89FF896083E889F98980816F
:1009D0008370806480839FBF81E090E0DF91CF913E
:1009E0001F910F91FF90EF900895F62E0B8D10E060
:1009F0000F5F1F4F0F731127E02E8C8D8E110CC0CF
:100A00000FB607FCFACFE889F989808185FFF5CF19
:100A1000CE010E94AC04F1CFEB8DEC0FFD2FF11D48
:100A2000E35AFF4FF0829FB7F8940B8FEA89FB8956
:100A300080818062CFCFCF93DF93EC01888D8823B4
:100A4000B9F0AA89BB89E889F9898C9185FD03C031
:100A5000808186FD0DC00FB607FCF7CF8C9185FF16
:100A6000F2CF808185FFEDCFCE010E94AC04E9CFAB
:100A7000DF91CF91089590E0FC01E654FA4F249164
:100A8000FC01E854F84F3491FC01EA52F84FE4912C
:100A9000EE23C9F0222339F0233001F1A8F42130EC
:100AA00019F1223029F1F0E0EE0FFF1FE453F84F67
:100AB000A591B4918FB7F894EC91611126C030954F
:100AC0003E233C938FBF08952730A9F02830C9F00A
:100AD000243049F7809180008F7D03C08091800091
:100AE0008F7780938000DFCF84B58F7784BDDBCF95
:100AF00084B58F7DFBCF8091B0008F778093B0005D
:100B0000D2CF8091B0008F7DF9CF3E2BDACFCF933B
:100B1000DF9390E0FC01E854F84F24918A52984FFB
:100B2000FC0184918823D1F090E0880F991FFC018B
:100B3000E253FA4FA591B491FC01E453F84FC591EB
:100B4000D49161110EC09FB7F8948C91E22FE0957B
:100B50008E238C932881E223E8839FBFDF91CF917E
:100B600008958FB7F894EC91E22BEC938FBFF6CFFA
:100B70008230910538F0880F991F880F991F0597CB
:100B80000197F1F708959F92AF92BF92CF92DF92B3
:100B9000EF92FF920F931F93CF93DF93EC016B01C2
:100BA0008885998511E0892B09F010E8F601A0806D
:100BB0008A2D8123992493948111912C2C813D813C
:100BC0004E815F8160E271EA87E090E00E94F61A50
:100BD000022FB12CE22EF12C002319F0C7010E9444
:100BE000B8058A85877F09F04FC08D858F3F89F0D2
:100BF0009A2D912381E009F480E0891551F0EF8569
:100C0000F8898F899923D1F19081892B8083992448
:100C10009394E989FA898081998D892B80830023B7
:100C200019F0C7010E94B8058E858F3F39F0EB8916
:100C3000FC898081988D892309F0B12AE989FA8994
:100C40009081898D8095892380838E858F3F11F0D7
:100C5000F601B08288859985892B09F044C0110F6F
:100C60001111BACFDF91CF911F910F91FF90EF90AB
:100C7000DF90CF90BF90AF909F9008959081809526
:100C800089238083912CC5CFE989FA898081998D48
:100C9000892B8083002319F0C7010E94B8058D8538
:100CA0008F3F49F0EF85F8898F899A2D9123B9F00C
:100CB0009081892B8083E989FA899081898D80953B
:100CC000892380838E858F3F09F4BFCFEB89FC8910
:100CD0008081988D892309F4B8CFB12AB6CF90814D
:100CE00080958923E7CF1695BBCFAF92BF92CF9265
:100CF000DF92EF92FF920F931F93CF93DF931F9298
:100D0000CDB7DEB78C015B016A01DC018D919C914E
:100D10001197892B39F01296ED91FC919081818188
:100D20009CBD8DBDF80183858F3F19F060E00E9466
:100D30003B057501CA0CDB1CCE14DF04A9F0D701FA
:100D40008D917D018983F80180819181892B29F022
:100D5000CE0101960E942104EFCFBE016F5F7F4F4D
:100D6000C8010E94C305E8CFD8011B968C918F3F24
:100D700019F061E00E943B0581E00F90DF91CF9177
:100D80001F910F91FF90EF90DF90CF90BF90AF90A9
:100D900008953FB7F89480912D0290912E02A09172
:100DA0002F02B091300226B5A89B05C02F3F19F045
:100DB0000196A11DB11D3FBFBA2FA92F982F8827DB
:100DC000BC01CD01620F711D811D911D42E0660FB6
:100DD000771F881F991F4A95D1F708958F929F9288
:100DE000AF92BF92CF92DF92EF92FF926B017C01A4
:100DF0000E94C9064B015C01C114D104E104F10455
:100E0000B9F00E94C906681979098A099B09683EE8
:100E100073408105910580F321E0C21AD108E108F1
:100E2000F10888EE880E83E0981EA11CB11CE4CF67
:100E3000FF90EF90DF90CF90BF90AF909F908F90FA
:100E40000895FF920F931F93CF93DF93FC0177FDDB
:100E500072C080859185681779070CF06CC057FDCA
:100E60006AC082859385481759070CF064C086894B
:100E7000823009F466C0833009F474C0813041F4D3
:100E800084819581841B950BAB01BC016150710974
:100E900081A592A5681779070CF4CB0192A781A7C9
:100EA00083A594A5481759070CF4CA0194A783A7F2
:100EB00085A596A5861797070CF4CB0196A785A75D
:100EC00087A590A9841795070CF4CA0190AB87A752
:100ED00087A9813051F42130310509F44CC008F460
:100EE00070C02230310509F491C087A9843019F50A
:100EF000A481B5814A9FC0014B9F900D5A9F900DD0
:100F0000112497FD019695958795AB0177FF02C057
:100F10004F5F5F4F55954795840F951F07A0F0A52C
:100F2000E02DE80FF91F908160FD95C09F7022951C
:100F3000207F922B9083DF91CF911F910F91FF9093
:100F40000895848195818C01061B170BB8016150AF
:100F5000710986819781DC01A41BB50BAD0141505D
:100F6000510996CF86819781861B970BBA01AC01F8
:100F7000415051098DCFCA0157FD0796C3E09595A1
:100F80008795CA95E1F7C481D5818C9FD0018D9F4B
:100F9000B00D9C9FB00D1124CD01860F971FA7A106
:100FA000B0A5A80FB91FEA01C770DD2781E090E066
:100FB0008C0101C0000FCA95EAF78C91802B8C93AD
:100FC00094CFCA0157FD0796B3E095958795BA95DA
:100FD000E1F7C481D5818C9FD0018D9FB00D9C9F7E
:100FE000B00D1124CD01860F971FA7A1B0A5A80FA2
:100FF000B91FEA01C770DD2781E090E001C0880FCA
:10100000CA95EAF780959C918923D9CFCA0157FDEB
:101010000796A3E095958795AA95E1F7C481D581B8
:101020008C9FD0018D9FB00D9C9FB00D1124CD01E0
:10103000860F971FA7A1B0A5A80FB91FEA01C77017
:10104000DD2781E090E08C0101C0000FCA95EAF72E
:101050008C918027B4CF907F2F70292B20836BCF6A
:101060000895FC016370668B8481958126813781A8
:10107000613039F0633029F0918780873387228788
:101080000895318720879387828708952F923F9212
:101090004F925F926F927F928F929F92AF92BF9288
:1010A000CF92DF92EF92FF920F931F93CF93DF9334
:1010B000CDB7DEB76A970FB6F894DEBF0FBECDBFCF
:1010C0009A8F898F7A8369834A01D22E18870F837A
:1010D0003701BC2CDC0159962D913C915A97211572
:1010E000310509F015C118968D919C9119976817D3
:1010F00079070CF0D7C11A968D919C914817590722
:101100000CF0D0C14C2C512CB6E0CB9E600D711D63
:1011100011247C876B87161617060CF0C3C1EA2DC5
:10112000F0E0FA87E98793E0EE0FFF1F9A95E1F769
:10113000F88BEF87CF01840F951F181619060CF056
:10114000B1C1A98DBA8D58968C91811104C0BFEAA6
:10115000BD1508F4D394A98DBA8DED91FC9111972A
:101160000284F385E02DCD010995B5E0DB9EC00139
:101170001124E981FA81FC83EB83312C212C9C0121
:1011800026543F4F388F2F8B4A2D50E05E8B4D8B6E
:10119000EF89F88DE20DF31D44919E828D82D12C52
:1011A000C12C69817A81620D731D7A8B698B842FC2
:1011B00090E09C8B8B8BE98DFA8DA081B18140FFF3
:1011C00082C0F1E0BF126FC0AF126DC01C96ED91EE
:1011D000FC912F813885A4014C0D5D1D69897A89A8
:1011E000898D9A8D0995EB89FC89F595E7954E2FA8
:1011F0005FEFC51AD50A6D817E818D899E89680F42
:10120000791F7E836D8398E0C916D10481F6AFEF14
:101210002A1A3A0AEB81FC81E40DF51DFC83EB836D
:10122000F5E02F16310409F0B3CF2F81388526154C
:101230003705B9F0A98DBA8DED91FC91B1E0BB12E3
:1012400057C0AB1255C069817A816B5F7F4F0088B0
:10125000F189E02D830128E030E0A401898D9A8D89
:101260000995A98DBA8DED91FC9111970688F789A2
:10127000E02DCD016A960FB6F894DEBF0FBECDBF4C
:10128000DF91CF911F910F91FF90EF90DF90CF9062
:10129000BF90AF909F908F907F906F905F904F9096
:1012A0003F902F9009941E96ED91FC91EF80F88469
:1012B00009851A8592014D815E816B817C81898DC2
:1012C0009A8D099590CF2F8138852615370509F419
:1012D0008ACF31E0B31207C0A31205C01C96ED916E
:1012E000FC91930178CF1E96ED91FC917301E0CFB4
:1012F0006B857C85641975090684F785E02D73017B
:101300000F8518899201A401898D9A8D0995A9CF1D
:10131000F90134969491329745915491D91AB7E0D6
:10132000DB9E400D511D1124F901259134913C8B18
:101330002B8BFA0125903490FA01329674903196F5
:101340003491398B329664903196449041E04C153B
:1013500018F04A1508F07FC0662D062C000C770B9C
:101360007C836B83842D042C000C990B9E838D83CE
:10137000A98DBA8DED91FC9111970284F385E02D32
:10138000CD010995512CD12CC12CEA2DF0E0FA8722
:10139000E9872B2D30E03C872B87A401440D511D9C
:1013A00047FC5A95588F4F8B69817A81660D711D64
:1013B00067FC7A957E876D877989C71608F051CFCB
:1013C0002C2D30E04D815E81420F531FA985BA85D7
:1013D0004A9FC0014B9F900D5A9F900D1124FC0114
:1013E000E80DF91DF88BEF87852D612C4F89588DFD
:1013F000420F531F5E8B4D8B671408F050C044247E
:101400004394480E877041F4C1010196EB89FC8931
:10141000E20DF31DD4901C01D7FE19C0A98DBA8D21
:10142000ED91FC91662D70E0B1E0BB1219C0AB12DA
:1014300017C02D853E85620F731F0484F585E02D4E
:101440002F8138854D895E89898D9A8D0995DD0CAE
:101450006394842DD1CF1E821D821C821B8288CF73
:101460004B815C81640F751FAB85BC856A9FC00191
:101470006B9F900D7A9F900D112469817A81680F7E
:10148000791F0684F785E02DEF80F88409851A8599
:101490009D014F855889898D9A8D0995D8CF570C14
:1014A000C3948ACF6A960FB6F894DEBF0FBECDBF45
:1014B000DF91CF911F910F91FF90EF90DF90CF9030
:1014C000BF90AF909F908F907F906F905F904F9064
:1014D0003F902F9008958F929F92AF92CF92EF926C
:1014E000FF920F931F93CF93DF93EC01262F898DEB
:1014F0009A8D009709F051C06A30D1F41D861C8680
:101500008D8948E0849F900111248E859F85820FEC
:10151000931F9F878E8781E090E0DF91CF911F918D
:101520000F91FF90EF90CF90AF909F908F90089584
:101530006D3089F3CC88AD888F898823C1F08C8584
:101540009D8536E0C39E800D911D112448855985E7
:101550004817590764F44E855F851D861C8638E060
:10156000A39EC0011124840F951F9F878E87EA8850
:10157000FB88088919894E855F856C857D85CE013C
:101580000E9446082C898C859D8546E0249F800D0D
:10159000911D11249D878C87BECF6A3069F41D860A
:1015A0001C86FC013896E4912D898E859F85E29FEB
:1015B000800D911D1124ADCF6D3009F4ACCFFC012D
:1015C00034963491631708F4A6CF3296E491E61767
:1015D00008F4A1CFFC01329685909490462F431BCE
:1015E000342F47E0349F800C911C1124F401329673
:1015F00034913196E4913323A9F1EE2399F1CC880B
:10160000F4013596E491AD884F89442301F10E2E03
:10161000000CFF0BE30FF11DCE9EA001CF9E500DDD
:1016200011246C857D85460F571F68857985641761
:1016300075076CF44E855F851D861C86FC01389607
:10164000E491AE9E400D511D11245F874E87EA88BC
:10165000FB88088919894E855F856C857D85CE015B
:101660000E944608F4013496E4912C898C859D856E
:10167000E29F800D911D11248DCF0F931F93CF9367
:10168000DF938C01D0E0C0E0F801EC0FFD1F649106
:10169000662341F083E693E00E946B0A892B11F0E8
:1016A0002196F2CF42E050E06EEB71E083E693E0EA
:1016B0000E942E048C0F9D1FDF91CF911F910F91DF
:1016C00008956F927F928F929F92AF92BF92CF9226
:1016D000DF92EF92FF920F931F93CF93DF93EC0172
:1016E0006B015A0139014801E881F9810284F385CF
:1016F000E02D0995E881F9810288F389E02D8701C1
:101700009301A501B601CE010995A501480D591D0A
:1017100041505109E881F9810288F389E02D930154
:10172000B601CE010995E881F9810088F189E02DA3
:101730009401A501B601CE010995C60CD71CB601CE
:1017400061507109E881F9810088F189E02D9401E7
:10175000A501CE010995E881F9810688F789E02D78
:10176000CE01DF91CF911F910F91FF90EF90DF900D
:10177000CF90BF90AF909F908F907F906F90099483
:101780006F927F928F929F92AF92BF92CF92DF9291
:10179000EF92FF920F931F93CF93DF935C01EB01C6
:1017A0006A01490138018701DC01ED91FC91621762
:1017B000730719F5641675062CF0962D872D3A01DE
:1017C000C92ED82E9601261937092F5F3F4F048C5A
:1017D000F58DE02DA301BE01C5010995DF91CF91E3
:1017E0001F910F91FF90EF90DF90CF90BF90AF903F
:1017F0009F908F907F906F9008954615570591F4B4
:101800002617370724F0892D4B01C22FD82F9E01B0
:10181000281939092F5F3F4F068CF78DE02DA6015F
:10182000B401DACF0284F385E02D0995D501ED915D
:10183000FC910488F589E02D83019401A601BE0185
:10184000C5010995D501ED91FC910688F789E02D38
:10185000C501DF91CF911F910F91FF90EF90DF9025
:10186000CF90BF90AF909F908F907F906F90099492
:10187000EF92FF920F931F93DC011A960D911C912A
:101880001B9718962D913C911997ED91FC9100A012
:10189000F1A1E02D7B0150E040E070E060E00995AF
:1018A0001F910F91FF90EF9008954F925F926F926A
:1018B0007F928F929F92AF92BF92CF92DF92EF92E0
:1018C000FF920F931F93CF93DF936C012B015A016B
:1018D00039014801DC01ED91FC910284F385E02D92
:1018E0000995E201640C751CD601ED91FC91C615B9
:1018F000D7055CF40088F189E02D87019401A501EA
:10190000BE01C60109952196EFCF0688F789E02D23
:10191000C601DF91CF911F910F91FF90EF90DF9063
:10192000CF90BF90AF909F908F907F906F905F907F
:101930004F9009948F929F92AF92BF92CF92DF9275
:10194000EF92FF920F931F93CF93DF93EC015B0114
:101950004A016901E881F9810284F385E02D099546
:1019600095012C0D3D1D21503109E881F981048834
:10197000F589E02D78018401A401B501CE01099516
:10198000E881F9810688F789E02DCE01DF91CF91BA
:101990001F910F91FF90EF90DF90CF90BF90AF908D
:1019A0009F908F9009948F929F92AF92BF92CF9207
:1019B000DF92EF92FF920F931F93CF93DF93EC018F
:1019C0005B014A0169017801E881F9810284F385AC
:1019D000E02D0995C80CD91C860101501109E88138
:1019E000F9810488F589E02D9501A401B501CE01A6
:1019F0000995E881F9810688F789E02DCE01DF910C
:101A0000CF911F910F91FF90EF90DF90CF90BF90FB
:101A1000AF909F908F900994EF92FF920F931F9336
:101A2000DC01ED91FC9100A0F1A1E02D09951F9141
:101A30000F91FF90EF9008950F931F93DC01ED91AC
:101A4000FC91068CF78DE02D09951F910F9108955B
:101A50000F931F93DC01ED91FC91048CF58DE02D2B
:101A600009951F910F910895DC01ED91FC9100847F
:101A7000F185E02D09942F923F924F925F926F92E1
:101A80007F928F929F92AF92BF92CF92DF92EF920E
:101A9000FF920F931F93CF93DF9300D000D000D01D
:101AA000CDB7DEB73C016A013E832D83FC82EB8219
:101AB0005801A41AB50AB7FE03C0B194A194B108A5
:101AC0008D809E80861A970A97FE03C09194819418
:101AD00091088A149B045CF0902F812F0D811E8148
:101AE0009D838E839C2D8D2D6B01692F782F0C1576
:101AF0001D055CF09D818E817E836D83692F782F1B
:101B0000902F812F8601C92ED82E1601201A310A56
:101B10002B012D813E81421A530A57FE03C0519476
:101B200041945108710137FE03C03FEFE31AF30AF5
:101B3000F594E7948D819E81861797075CF5A1E067
:101B4000B0E0BA83A983C016D1064CF1D301ED9160
:101B5000FC910484F585E02D2B813C81A8016D81E9
:101B60007E818A149B041CF04D815E81B801C30103
:101B70000995E418F508F7FE0AC02D813E81898198
:101B80009A81280F391F3E832D83E20CF31C0F5FCF
:101B90001F4FD9CF2FEF3FEF3A832983D4CF26961B
:101BA0000FB6F894DEBF0FBECDBFDF91CF911F916E
:101BB0000F91FF90EF90DF90CF90BF90AF909F90EC
:101BC0008F907F906F905F904F903F902F900895EF
:101BD000089520910502260F3327331F2132310546
:101BE000ECF420916402FC0190E080E0243069F084
:101BF00082E00895A09105022191AC014B515E4F06
:101C0000A40FB52FB11D2C930196861798F38091E0
:101C10000502680F6093050280E0089581E0089551
:101C20001092640281E08093630210923E0261E0B0
:101C300082E10E943B0561E083E10E943B05E9EB04
:101C4000F0E080818E7F808380818D7F808388E437
:101C50008093B80085E48093BC000895CF93DF9310
:101C600091E09093E4018823B9F0C091B800D0913D
:101C7000BA008091BC008A7B8093BC0060E082E166
:101C80000E943B0560E083E10E943B050E94100E2C
:101C9000D093BA00C093B800DF91CF9108958F928E
:101CA0009F92AF92BF92CF92DF92EF92FF920F93EB
:101CB0001F93CF93DF93D0918D02D13208F0D7C01C
:101CC000182FC0918C020E94C9066B017C01809183
:101CD000640281116BC082E08093640210936302FE
:101CE0008FEF8093620210926102D0936002ACE6A3
:101CF000B2E0E0E4F2E080E0D81391C010923F023D
:101D000080913F02CC0FC82BC0933F0280913E02CE
:101D1000813009F088C010923E020E94C9066B0112
:101D20007C0180913F028093BB008091660290917C
:101D30006702A0916802B0916902892B8A2B8B2BD4
:101D4000A1F00E94C90600916602109167022091DD
:101D50006802309169026C197D098E099F09061786
:101D600017072807390708F442C08091BC0083FD9B
:101D7000D8CF85EC8093BC000E94C9066B017C0122
:101D800080916402823009F450C0809162028F3FDA
:101D900009F46FC080916202803209F46CC08091B6
:101DA0006202803309F469C084E026C08091660233
:101DB00090916702A0916802B0916902892B8A2BE9
:101DC0008B2B09F484CF0E94C90680906602909004
:101DD0006702A0906802B09069026C197D098E09B3
:101DE0009F0986169706A806B90608F070CF80915D
:101DF00065020E942E0E85E010926B0210928D02F9
:101E000010926A02DF91CF911F910F91FF90EF9096
:101E1000DF90CF90BF90AF909F908F9008959D914D
:101E200091938F5F69CF85EEA5CF809166029091E7
:101E30006702A0916802B0916902892B8A2B8B2BD3
:101E400009F49ECF0E94C9060091660210916702B4
:101E500020916802309169026C197D098E099F09F1
:101E6000061717072807390708F08ACFC0CF81E087
:101E7000C3CF80E0C1CF82E0BFCF83E0BDCFCF92A0
:101E8000DF92EF92FF920F931F93CF93DF93DA01CC
:101E9000A00FB11FEC01EC81FD81EA17FB0710F4E4
:101EA00090E024C07A016B0189819A81488151E0D8
:101EB00050936A0240938C0210926B0210928D0232
:101EC000012BF1F489819A81DC01ED91FC91028072
:101ED000F381E02DA701B6010995E816F90601F78F
:101EE00081E00E944F0E91E08111DACF892FDF91BE
:101EF000CF911F910F91FF90EF90DF90CF900895B9
:101F000021153105F9F2DC01ED91FC910280F3819C
:101F1000E02D41E050E0B9010995019709F6D2CFD3
:101F2000CF92DF92EF92FF920F931F93CF93DF93A5
:101F30001F92CDB7DEB78C016B01FC01858D968DAC
:101F4000E42EF12C009799F0198201E010E09E0137
:101F50002F5F3F4FA7010E943F0F0F90DF91CF915E
:101F60001F910F91FF90EF90DF90CF90089560E068
:101F700081A90E943B05A701B601F801838D948DCC
:101F80000E947506EACF2F923F924F925F926F9216
:101F90007F928F929F92AF92BF92CF92DF92EF92F9
:101FA000FF920F931F93CF93DF93CDB7DEB729979F
:101FB0000FB6F894DEBF0FBECDBF7C0180E48C83EA
:101FC000D7011496CD90DC9015977C2C9B96AD9004
:101FD000BC90B7FE03C0B7E0AB0EB11CE3E0B59414
:101FE000A794EA95E1F72A2CF70127A530A9C901A2
:101FF000079697FD079673E0959587957A95E1F793
:102000008887DD24D70199964D905C90C414D5043F
:102010000CF426014F82F70185A596A597FD80E077
:10202000682ED7015D968D919C915E97892B09F45E
:1020300071C05F962D913D914D915C91929760E0BA
:1020400074E284EF90E00E94F61A205131094109B0
:10205000510956954795379527952093B800D70194
:102060005D96ED91FC91848181508D83AC9C400103
:10207000AD9C900C11245524840C951C7394760C03
:102080007986E8852E1608F05AC0D7019796AD904C
:10209000BC909897A80CB91C14968C913984381A66
:1020A000BF813B1AF70182AD8055820D898383ADD4
:1020B0009201280F311D94E0359527959A95E1F707
:1020C000205F2A838B0F8F708B8343E0BE016F5F8D
:1020D0007F4FC7010E94900F332069F1FD81FE837D
:1020E0003F1608F43E82D7015D968D919C91BE818A
:1020F0006B2E712C009789F001E010E09E012C5F9F
:102100003F4FA301B5010E943F0FA60CB71CBE8133
:102110003B1AE2CFB0E8BD83A9CF61E0F70181A906
:102120000E943B05A301B501D7015B968D919C915F
:102130000E947506EACF23948C0C9D1CA2CFF70158
:10214000858D968D892BA1F023A134A145A156A19F
:1021500060E074E284EF90E00E94F61A20513109A9
:102160004109510956954795379527952093B80011
:1021700080E094E0D7019A969C938E9399979C96D1
:102180009C938E939B978FEF9FEF9E969C938E933D
:102190009D97D0969C938E939F9729960FB6F8940F
:1021A000DEBF0FBECDBFDF91CF911F910F91FF908A
:1021B000EF90DF90CF90BF90AF909F908F907F90E7
:1021C0006F905F904F903F902F9008950F931F93C3
:1021D000CF93DF9300D01F92CDB7DEB78C016B8316
:1021E000FC01858D968D0097B1F01A8219826A8361
:1021F00010E000E030E020E042E050E0BE016F5F20
:102200007F4F0E943F0F0F900F900F90DF91CF9163
:102210001F910F91089560E081A90E943B0541E064
:1022200050E0BE016D5F7F4FF801838D948D0E9459
:102230007506E9CF611103C066EA0C94E61067EAFF
:10224000FCCFCF93DF93EC018B818823A1F08881B1
:1022500091E090936A0280938C0210926B0210922C
:102260008D0281E00E944F0E91E0811190E0892F54
:10227000DF91CF910895109237021092360210929A
:102280006B0210928D020E94100E8BE294E09093EC
:102290003502809334028CE294E090933302809371
:1022A000320281E08B83CE010E942111982F81118F
:1022B000CECFDDCFE091370280913602E81730F4BF
:1022C000F0E0EC53FE4F808190E008958FEF9FEF98
:1022D000089590913702809136022FEF3FEF9817C3
:1022E00048F4E92FF0E0EC53FE4F208130E09F5F8F
:1022F00090933702C9010895809136029091370278
:10230000891B990B0895CF92DF92EF92FF920F9362
:102310001F93CF93DF937C01CB018A0120916A0246
:10232000222389F0EB016B01C40ED51ECC15DD050F
:1023300069F06991D701ED91FC910190F081E02D58
:10234000C7010995F3CF642F0E94E90DC801DF9101
:10235000CF911F910F91FF90EF90DF90CF90089554
:10236000CF93DF931F92CDB7DEB7698320916A02C6
:102370002223F9F020918D02203258F021E030E044
:10238000FC013383228390E080E00F90DF91CF91B6
:10239000089580916B02E82FF0E0E459FD4F998198
:1023A00090838F5F80936B0280938D0281E090E039
:1023B000ECCF61E0CE0101960E94E90DF7CF90E0ED
:1023C00080E008950895E3E6F3E081E0848B858B57
:1023D00081E090E0938B828B918B808B15861486A5
:1023E0001786168680E890E00E943D0B88E690E014
:1023F0000E943D0B83E693E00E94C30F6AE070E009
:1024000080E090E00E94EE0682E090E090933D0232
:1024100080933C0208950E947A1CCF93DF93EC01D5
:102420002FA98C819D81289FB001299F700D1124B7
:102430002E813F81C901079697FD079623E0959568
:1024400087952A95E1F7689FA001699F500D789FB5
:10245000500D112470E060E08FA198A50E947F1CB0
:102460001AA619A61CA61BA68C819D8101979EA762
:102470008DA78E819F81019798AB8FA7DF91CF9118
:10248000089583E693E00E940D12E3E6F3E081E015
:10249000848B858B81E090E0938B828B918B808BFA
:1024A000158614861786168608950E9441128BEAB7
:1024B00090E00E943D0B83E693E00E94C30F64E628
:1024C00070E080E090E00C94EE0685ED8093BC0017
:1024D0008091660290916702A0916802B0916902B2
:1024E0000796A11DB11D23E0B695A79597958795F1
:1024F0002A95D1F72091BC0024FD03C010926402FC
:10250000089540916602509167026091680270914F
:102510006902452B462B472B69F30097A105B105AE
:1025200041F025E32A95F1F700000197A109B109CF
:10253000E1CF809165020C942E0ECF93DF930E9421
:1025400041120E94B41A63E070E00E94271BEC0164
:102550009093C3018093C20160ED77E080E090E04A
:102560000E94EE06C130D105A1F0C230D105B1F014
:1025700082EA90E0CD2B79F083E693E00E94C30FCE
:1025800081E090E090933D0280933C02DF91CF91F7
:10259000089585E990E00E943D0BEECF8BE890E036
:1025A000FACF1F920F920FB60F9211242F933F93E1
:1025B0004F935F936F937F938F939F93AF93BF934B
:1025C000EF93FF938EE892E00E94AC04FF91EF91AD
:1025D000BF91AF919F918F917F916F915F914F913B
:1025E0003F912F910F900FBE0F901F9018951F9243
:1025F0000F920FB60F9211242F938F939F93EF9307
:10260000FF93E0919E02F0919F028081E091A402ED
:10261000F091A50282FD1BC090818091A7028F5F7F
:102620008F732091A802821741F0E091A702F0E099
:10263000E257FD4F958F8093A702FF91EF919F91F5
:102640008F912F910F900FBE0F901F901895808142
:10265000F4CF1F920F920FB60F9211242F933F9336
:102660008F939F93AF93BF938091290290912A02F9
:10267000A0912B02B0912C023091280223E0230F6D
:102680002D3758F50196A11DB11D20932802809386
:10269000290290932A02A0932B02B0932C028091DE
:1026A0002D0290912E02A0912F02B091300201963E
:1026B000A11DB11D80932D0290932E02A0932F0295
:1026C000B0933002BF91AF919F918F913F912F9125
:1026D0000F900FBE0F901F90189526E8230F0296BB
:1026E000A11DB11DD2CF1F920F920FB60F921124D0
:1026F0002F933F938F939F93AF93BF93CF93DF938A
:10270000EF93FF93E0913A02F0913B02309749F04A
:10271000A685B7859585868D81FF12C08C9189230A
:1027200091F4FF91EF91DF91CF91BF91AF919F9184
:102730008F913F912F910F900FBE0F901F90189582
:102740008C91892371F7A389B4899C91858980959F
:1027500089238C93868997890197F1F7208D318D94
:10276000C685D78588E0D9011197F1F79881815006
:10277000D1F78091390290E001968F7399272091CB
:102780003802281779F09091390280933902828DAE
:10279000938D0197F1F7A389B4898C919589892B41
:1027A0008C93BFCF868D8160868FF1CF1F920F9261
:1027B0000FB60F9211242F933F934F935F936F9314
:1027C0007F938F939F93AF93BF93EF93FF938091EA
:1027D000B900887F803609F44AC0F0F5883209F4E0
:1027E000A7C018F5803109F49BC0B8F4882309F418
:1027F000F9C0883009F494C0FF91EF91BF91AF9177
:102800009F918F917F916F915F914F913F912F9108
:102810000F900FBE0F901F901895883109F488C053
:10282000803251F78093620214C0803409F49DC055
:1028300040F48033B9F38833F9F68093620285EC73
:10284000B0C0803509F485C0883509F496C0883455
:1028500099F60E946512D0CF883909F48CC038F5FA
:10286000883729F050F4883611F0803729F683E054
:10287000809364021092270257C0883809F47BC005
:10288000803919F0803809F0B7CF80912702803263
:1028900008F071C0E091270281E08E0F809327023B
:1028A0008091BB00F0E0E95FFD4F80833DC0803B3D
:1028B00039F0E0F4803A09F479C0883A09F09CCF05
:1028C00084E0809364021092060210920502E09167
:1028D0003402F091350209958091050281110FC0F3
:1028E00081E0809305021092E50109C0803C09F463
:1028F000A6CF883C09F4A3CF883B09F07DCFE091B7
:10290000060281E08E0F80930602F0E0EB51FE4F4D
:1029100080818093BB00909106028091050229C0BE
:1029200080913F028093BB0085EC8093BC0064CF14
:102930009091610280916002981758F5E0916102D0
:1029400081E08E0F80936102F0E0E05CFD4F8081BA
:10295000E9CFE091610281E08E0F80936102809166
:10296000BB00F0E0E05CFD4F8083909161028091BC
:1029700060029817C8F285E8D8CFE091610281E043
:102980008E0F809361028091BB00F0E0E05CFD4F10
:1029900080838091630281115CCF81E080933E024D
:1029A00084EA8093BC001092640226CF85EC809369
:1029B000BC001092640280912702803230F4E091D2
:1029C0002702F0E0E95FFD4F10826091270270E07E
:1029D000E0913202F091330287E092E00995109283
:1029E00027020ACF1092620234CFCF92DF92EF9289
:1029F000FF920F931F93CF93DF938EE8E82E82E030
:102A0000F82ED70113961C921E92129788EE93E02F
:102A1000A0E0B0E0F70184839583A683B78384E5C3
:102A200091E09183808385EC90E09587848784ECA6
:102A300090E09787868780EC90E0918B808B81EC8B
:102A400090E0938B828B82EC90E0958B848B86EC6C
:102A500090E0978B868B118E128E138E148EC3E6A8
:102A6000D3E01B821A8280E890E09D838C8320E46F
:102A7000C22ED12CDF82CE8299878887DB86CA86D8
:102A80001E8A1D861C861F861E8681E08D8B8C8B80
:102A90002FEF3FEF3B8B2A8B398B288B8F8B188E38
:102AA0001A8E198E1E8E1D8E40E85AE166E070E087
:102AB0004F8F58A369A37AA340EA56E861E070E01B
:102AC0004BA35CA36DA37EA318A61FA22FE030E04A
:102AD0003AAB29AB29E030E03CAB2BAB2DE030E04A
:102AE0003EAB2DAB8FAB19AE18AE8CE190E00E94DF
:102AF000551B8C0189E0D8011B968C931B978EE0A7
:102B00001C968C931C978FEF1E968C931E978AE0D1
:102B10001D968C931D97EFEDF7E0E491F0E0EE0F3A
:102B2000FF1FE453F84F85919491F801968B858BA4
:102B3000E1ECF7E0E4915A96EC935A97E0EEF7E077
:102B4000E491F0E0EE0FFF1FE453F84F859194916C
:102B5000F801908B8787E2ECF7E0E4915796EC93CD
:102B60005797E4EEF7E0E491F0E0EE0FFF1FE45337
:102B7000F84F85919491F801928B818BE6ECF7E008
:102B8000E4915996EC9380E492E4AFE0B0E0F80170
:102B900084839583A683B78381E090E091878087C3
:102BA0001286138E82E090E00E94551B21E5DC0125
:102BB0002C9311961C92F8019383828311821082C8
:102BC0001C8F0B8F84E991E0998388831AAE1BAE2A
:102BD000EBE2F3E01782168211861086D386C28656
:102BE000158614868FEF9FEFDC0186879787A08B71
:102BF000B18BD38AC28A20E031EE358B248B168AC2
:102C0000178A108E118E828F938FA48FB58F15AA7D
:102C100014AAF7AAE6AAF3AAE2AADF91CF911F911C
:102C20000F91FF90EF90DF90CF900895CF93DF93B7
:102C3000CDB7DEB7C954D1090FB6F894DEBF0FBEC9
:102C4000CDBF789484B5826084BD84B5816084BD35
:102C500085B5826085BD85B5816085BD80916E003A
:102C6000816080936E00109281008091810082606B
:102C700080938100809181008160809381008091A8
:102C800080008160809380008091B1008460809397
:102C9000B1008091B00081608093B00080917A0093
:102CA000846080937A0080917A00826080937A00B9
:102CB00080917A00816080937A0080917A008068A8
:102CC00080937A001092C100E0919E02F0919F02E1
:102CD00082E08083E0919A02F0919B021082E09161
:102CE0009C02F0919D028FEC80831092A602E091ED
:102CF000A202F091A30286E08083E091A002F0910D
:102D0000A102808180618083E091A002F091A10204
:102D1000808188608083E091A002F091A10280818F
:102D200080688083E091A002F091A10280818F7D74
:102D3000808380918A0390918B03892B09F46EC064
:102D4000809198039091990397FD24C061E00E94BF
:102D5000870561E0809198030E943B056AE070E07E
:102D600080E090E00E94EE0660E0809198030E946F
:102D70003B056AE070E080E090E00E94EE0661E0D2
:102D8000809198030E943B056AE070E080E090E04B
:102D90000E94EE06E0909B03F0909C03E114F10486
:102DA00009F466C086E090E00E94551B8C018CE31C
:102DB000D8018C931296FC92EE92119713961C9266
:102DC000139780E290E015969C938E93149710933E
:102DD0008103009380030115110509F448C0109286
:102DE00037021092360210926B0210928D020E94EE
:102DF000100E8BE294E090933502809334028CE2C3
:102E000094E0909333028093320281E0F80183834F
:102E1000C8010E942111811180C029C020919A030C
:102E20008091670390916803289FA001299F500D0E
:102E300011242091690330916A03C901079697FD17
:102E40000796E3E095958795EA95E1F79C01429F07
:102E5000C001439F900D529F900D11240E94551B5D
:102E600090938B0380938A03892B09F069CFFFCF5E
:102E700000917E0310917F0301151105C1F3D80164
:102E80001B968C918F3F41F061E00E94870561E0C5
:102E9000F80183850E943B05D8018D919C91892B77
:102EA00009F4F0C1FFB6F89480913102811127C076
:102EB000E0EEF7E08491E2ECF7E09491E82FF0E0A7
:102EC000EE0FFF1FE253FA4FA591B491EC91E92365
:102ED00021F461E08AE00E943B0561E08AE00E9403
:102EE00087058CB580618CBD8CB580648CBD61E03C
:102EF0008DE00E94870561E08BE00E94870580914C
:102F000031028F5F80933102FFBE81E0F801838F31
:102F100061E0809194030E94870583E693E00E941C
:102F20000D1210928D0310928C0310928F03109249
:102F30008E030091670310916803C8010197909375
:102F40009103809390038091690390916A039C019F
:102F50002150310930939303209392037C01F0E2D6
:102F6000EF1AF108F7FE04C07C012FE1E21AF10824
:102F7000F594E7940357110917FF02C00F5F1F4F25
:102F800015950795B12CA12C912CD12CC12CC601E3
:102F900087709927990C892B59F4F60143E0F59530
:102FA000E7954A95E1F7EA0DFB1DE852FA4F949038
:102FB00097FE0AC021E030E0A701B601600F711F43
:102FC00083E693E00E94340D3FEFC31AD30A83E7F0
:102FD000C816D104E1F6AFEFEA1AFA0ABFE0AB0E69
:102FE000B11CE0EEAE16E1E0BE0679F68091690311
:102FF00090916A03809709F070C184E080939D03EB
:1030000080939E034FE169E271E083E693E00E94C2
:10301000900F882309F42BCF64E670E080E090E005
:103020000E94EE066FEA83E693E00E94E61081E8D4
:1030300089838FE28A8342E0BE016F5F7F4F83E620
:1030400093E00E94900F68EE73E080E090E00E94B1
:10305000EE06E0916103F0916203309709F049C1F7
:10306000E0915F03F0916003309709F477C0138E0D
:10307000128E118E108E178A168A82E490E0958F38
:10308000848F8485863108F03DC02FE030E0378B97
:10309000268B20E430E0318F208F27E230E0338F21
:1030A000228F90916800883008F44CC121E08E3066
:1030B00008F420E081E001C0880F2A95EAF7892B07
:1030C0008093680094852DE630E0983050F02BE630
:1030D00030E09E3030F02CE630E0963110F030E0F9
:1030E00020E0348B238B292F30E0983008F02CC15E
:1030F00081E001C0880F9A95EAF7858B848D958DC4
:103100000197F1F7828D938D892B41F140913A021D
:1031100050913B02E417F50709F14115510569F09B
:10312000DA0153962D913C91D9019C91DA01559683
:103130008C9180958923D9018C93868D8E7F868F83
:103140001092390210923802F0933B02E0933A0257
:10315000A389B4898C919589892B8C9385E38A877F
:1031600082E08B8789E18C8781E08D878AE08E877A
:1031700080915D0390915E03DC01ED91FC910190E3
:10318000F081E02D6FEE099580915D0390915E03D3
:10319000DC01ED91FC910190F081E02D61E0099559
:1031A00080915D0390915E03DC01ED91FC910190B3
:1031B000F081E02D6FEF099580915D0390915E03A2
:1031C000DC01ED91FC910190F081E02D6FEF09950C
:1031D00080915D0390915E03DC01ED91FC91019083
:1031E000F081E02D6FEF099580915D0390915E0372
:1031F000DC01ED91FC910190F081E02D6FEF0995DC
:1032000080915D0390915E03DC01ED91FC91019052
:10321000F081E02D61E0099580915D0390915E035E
:10322000DC01ED91FC910190F081E02D60E00995C9
:1032300080915D0390915E03DC01ED91FC91019022
:10324000F081E02D67E009956E01BAE0CB0ED11C4C
:1032500036E0F32E08E010E080915D0390915E036C
:10326000DC01ED91FC910190F081E02DFA94FF20BA
:1032700009F477C0D601ED906D016E2D09950E0D04
:10328000111DEACF61E0F80184850E948705D8010D
:103290001A968C911A978B7FE1F460E01C968C91C2
:1032A0000E943B05D8011D968C918F3F41F061E053
:1032B0000E94870561E0F80185850E943B05D801E1
:1032C0001E968C918F3F09F420CE60E00E94870506
:1032D0001CCE61E0F8018485E3CF10929D034FE19D
:1032E0006AE071E083E693E00E94900F811194CE32
:1032F000BECDA089B18982E08C93A089B1891C924E
:10330000A485B5851C92A685B78580E18C93108E27
:10331000A489B58986E08C93A289B3898C91806158
:103320008C93A289B3898C9188608C93A289B3898C
:103330008C9180688C930288F389E02D80818F7D49
:1033400080838ECE84E0BBCE9E3040F4285031097D
:1033500081E001C0880F2A95EAF7CFCE2E503109BF
:10336000F7CF612F099580915D0390915E03DC0199
:10337000ED91FC910190F081E02D602F099595E091
:10338000C92ED12CEE24E3942FEEF22EB12CA12CD9
:1033900010E000E080915D0390915E03DC01ED910F
:1033A000FC910084F185E02D0995892B51F561E0B0
:1033B00070E080E090E00E94EE06BFEFAB1ABB0A1F
:1033C000E8EEAE16E3E0BE0628F383E693E00E9443
:1033D0000D1200E010E0E0913C02F0913D02EE0F92
:1033E000FF1FE85BFE4F0190F081E02D099501156C
:1033F000110589F30E949804882369F30E94000054
:10340000EACF80915D0390915E03DC01ED91FC9128
:103410000284F385E02D09950730110578F4023018
:103420001105C8F40115110589F001301105B1F03D
:10343000C8010897C816D90671F4C7CF073011051F
:10344000A1F008301105A1F7C82A05C08F3E09F088
:10345000A1CFF82EE12C0F5F1F4F9CCFE82AB1E0DF
:10346000EB16BFEEFB06B9F3B0CFD82EC12CF3CFCD
:10347000CF93DF9386E691E0909364038093630398
:1034800080918A0390918B03009731F00E94F11B89
:1034900010928B0310928A03C0917E03D0917F0318
:1034A000209749F08A819B81009711F00E94F11BBF
:1034B000CE010E94F11B80918003909181030097BF
:1034C00021F0DF91CF910C94F11BDF91CF91089502
:1034D0008F929F92AF92BF92CF92DF92EF92FF9224
:1034E000CF93DF93EC01688179818A819B8161159B
:1034F00071058105910521F464E279ED8BE597E092
:103500002DE133EF41E050E00E94C41A49015A0115
:103510009B01AC01A7EAB1E40E94E31A6B017C01B4
:10352000ACEEB4EFA50194010E94F11ADC01CB01CD
:103530008C0D9D1DAE1DBF1DB7FF03C00197A109D6
:10354000B04888839983AA83BB839F77DF91CF910B
:10355000FF90EF90DF90CF90BF90AF909F908F90B3
:1035600008950E94681A089580E091E00E94681A08
:103570000895B0E0A0E08093000190930101A09332
:103580000201B09303010895052E97FB1EF40094E9
:103590000E94DB1A57FD07D00E94F61A07FC03D0E1
:1035A0004EF40C94DB1A50954095309521953F4F81
:1035B0004F4F5F4F089590958095709561957F4F1F
:1035C0008F4F9F4F08950E94181BA59F900DB49F89
:1035D000900DA49F800D911D11240895B7FF0C94A8
:1035E000E31A0E94E31A821B930B0895A1E21A2E9C
:1035F000AA1BBB1BFD010DC0AA1FBB1FEE1FFF1F97
:10360000A217B307E407F50720F0A21BB30BE40BE6
:10361000F50B661F771F881F991F1A9469F760952D
:103620007095809590959B01AC01BD01CF010895E7
:10363000A29FB001B39FC001A39F700D811D1124F3
:10364000911DB29F700D811D1124911D089597FB4E
:10365000072E16F4009407D077FD09D00E943B1B7B
:1036600007FC05D03EF4909581959F4F0895709585
:1036700061957F4F0895AA1BBB1B51E107C0AA1F8C
:10368000BB1FA617B70710F0A61BB70B881F991F03
:103690005A95A9F780959095BC01CD010895EE0F3C
:1036A000FF1F0590F491E02D09940F931F93CF9382
:1036B000DF938230910510F482E090E0E091A10365
:1036C000F091A20330E020E0B0E0A0E0309799F460
:1036D0002115310509F44AC0281B390B2430310566
:1036E000D8F58A819B816115710589F1FB0193836E
:1036F0008283FE0111C040815181028113814817EC
:103700005907E0F04817590799F4109761F012969D
:103710000C93129713961C933296CF01DF91CF91A1
:103720001F910F9108950093A1031093A203F4CF6A
:103730002115310551F04217530738F0A901DB017B
:103740009A01BD01DF01F801C1CFEF01F9CF9093DC
:10375000A2038093A103CDCFFE01E20FF31F81935B
:1037600091932250310939832883D7CF20919F0329
:103770003091A003232B41F42091060130910701E1
:103780003093A00320939F03209104013091050101
:103790002115310541F42DB73EB7409108015091F4
:1037A0000901241B350BE0919F03F091A003E21760
:1037B000F307A0F42E1B3F0B2817390778F0AC0154
:1037C0004E5F5F4F2417350748F04E0F5F1F509331
:1037D000A00340939F03819391939FCFF0E0E0E09B
:1037E0009CCFCF93DF930097E9F0FC0132971382CF
:1037F0001282A091A103B091A203ED0130E020E07C
:103800001097A1F420813181820F931F20919F0393
:103810003091A0032817390709F061C0F093A00385
:10382000E0939F03DF91CF910895EA01CE17DF0760
:10383000E8F54A815B819E0141155105B1F7E90127
:10384000FB83EA8349915991C40FD51FEC17FD07FB
:1038500061F4808191810296840F951FE90199831B
:103860008883828193819B838A83F0E0E0E01296D3
:103870008D919C9113970097B9F52D913C911197DB
:10388000CD010296820F931F20919F033091A003D8
:103890002817390739F6309751F51092A203109284
:1038A000A103B093A003A0939F03BCCFD383C28393
:1038B00040815181840F951FC817D90761F44E5F6D
:1038C0005F4F88819981480F591F518340838A81B6
:1038D0009B81938382832115310509F0B0CFF0934A
:1038E000A203E093A1039ECFFD01DC01C0CF1382B0
:1038F0001282D7CF81E090E0F8940C94861CDC0112
:1039000001C06D9341505040E0F7089513E0C6EFB9
:10391000D3E004C0FE010E944F1B2196C73FD10790
:06392000C9F7F894FFCF87
:10392600010000000000A3038000AE0414402E81B5
:10393600328280A1A6A83FAD8EC8D340D5F0D80567
:10394600D9F1DA12913F3F3F3FAE0010402E81324F
:103956008210A1A6A83FAD8EC8D340D5F0D805D910
:10396600F1DA12913F3F3F3FE31155129D12E211EA
:1039760000000000CE042E045B041B058C046A04C0
:103986007E04000000006B0A2E04DF11E80D2107FB
:103996002D04340D0C0D280D1C0D3B0D2D04310886
:1039A6001A11D30C9A0C550C380CC00B610B0B1268
:1039B600000000006B0A2E04DF11E80D21072D041C
:1039C600340D0C0D280D1C0D3B0D2D0431081A115C
:1039D600D30C9A0C550C380CC00B610BC30F0D0A97
:0239E6000000DF
:00000001FF
